{
    "contractName": "Accounts",
    "abi": [
        {
            "constant": false,
            "inputs": [
                {
                    "internalType": "uint256",
                    "name": "index",
                    "type": "uint256"
                }
            ],
            "name": "getType",
            "outputs": [
                {
                    "internalType": "bool",
                    "name": "",
                    "type": "bool"
                }
            ],
            "payable": false,
            "stateMutability": "nonpayable",
            "type": "function"
        },
        {
            "constant": false,
            "inputs": [
                {
                    "internalType": "address",
                    "name": "_accAddress",
                    "type": "address"
                }
            ],
            "name": "deleteAccount",
            "outputs": [
                {
                    "internalType": "bool",
                    "name": "",
                    "type": "bool"
                }
            ],
            "payable": false,
            "stateMutability": "nonpayable",
            "type": "function"
        },
        {
            "constant": false,
            "inputs": [
                {
                    "internalType": "address",
                    "name": "_accAddress",
                    "type": "address"
                },
                {
                    "internalType": "bool",
                    "name": "_type",
                    "type": "bool"
                }
            ],
            "name": "add",
            "outputs": [
                {
                    "internalType": "bool",
                    "name": "",
                    "type": "bool"
                }
            ],
            "payable": false,
            "stateMutability": "nonpayable",
            "type": "function"
        },
        {
            "constant": false,
            "inputs": [
                {
                    "internalType": "address",
                    "name": "_accountAddress",
                    "type": "address"
                }
            ],
            "name": "getIndex",
            "outputs": [
                {
                    "internalType": "int256",
                    "name": "",
                    "type": "int256"
                }
            ],
            "payable": false,
            "stateMutability": "nonpayable",
            "type": "function"
        },
        {
            "inputs": [],
            "payable": false,
            "stateMutability": "nonpayable",
            "type": "constructor"
        }
    ],
    "bytecode": "608060405234801561001057600080fd5b506102b4806100206000396000f3fe608060405234801561001057600080fd5b506004361061004c5760003560e01c80634036ab78146100515780634c1b64cb146100825780636e983466146100a8578063b31610db146100d6575b600080fd5b61006e6004803603602081101561006757600080fd5b503561010e565b604080519115158252519081900360200190f35b61006e6004803603602081101561009857600080fd5b50356001600160a01b031661013a565b61006e600480360360408110156100be57600080fd5b506001600160a01b0381351690602001351515610140565b6100fc600480360360208110156100ec57600080fd5b50356001600160a01b03166101eb565b60408051918252519081900360200190f35b600080828154811061011c57fe5b600091825260209091200154600160a01b900460ff1690505b919050565b50600090565b600061014b83610244565b6101e157610157610268565b5050604080518082019091526001600160a01b03838116825282151560208301908152600080546001808201835591805293517f290decd9548b62a8d60345a988386fc84ba6bc95484008f6362f93160ef3e563909401805492516001600160a01b0319909316949093169390931760ff60a01b1916600160a01b911515919091021790556101e5565b5060005b92915050565b6000805b60005481101561023a57826001600160a01b03166000828154811061021057fe5b6000918252602090912001546001600160a01b03161415610232579050610135565b6001016101ef565b5060001992915050565b600061024f826101eb565b600019141561026057506000610135565b506001919050565b60408051808201909152600080825260208201529056fea265627a7a723158206503ab1ccfe67736e347e96d2706e5b56ce5b5d6f248688d2232bd58af835c4764736f6c634300050b0032",
    "sourcePath": "c:/Users/pc/Desktop/New folder (2)/BlockchainCreditBureau/contracts/Accounts.sol",
    "compiler": {
        "name": "solc",
        "version": "0.5.11+commit.c082d0b4"
    },
    "functionHashes": {
        "add(address,bool)": "6e983466",
        "deleteAccount(address)": "4c1b64cb",
        "getIndex(address)": "b31610db",
        "getType(uint256)": "4036ab78"
    },
    "gasEstimates": {
        "creation": {
            "codeDepositCost": "138400",
            "executionCost": "183",
            "totalCost": "138583"
        },
        "external": {
            "add(address,bool)": "infinite",
            "deleteAccount(address)": "266",
            "getIndex(address)": "infinite",
            "getType(uint256)": "747"
        },
        "internal": {
            "accountExists(address)": "infinite"
        }
    }
}