{
  "contractName": "Accounts",
  "abi": [
    {
      "inputs": [],
      "payable": false,
      "stateMutability": "nonpayable",
      "type": "constructor",
      "signature": "constructor"
    },
    {
      "constant": false,
      "inputs": [
        {
          "name": "_accountAddress",
          "type": "address"
        }
      ],
      "name": "getIndex",
      "outputs": [
        {
          "name": "",
          "type": "int256"
        }
      ],
      "payable": false,
      "stateMutability": "nonpayable",
      "type": "function",
      "signature": "0xb31610db"
    },
    {
      "constant": false,
      "inputs": [
        {
          "name": "index",
          "type": "uint256"
        }
      ],
      "name": "getType",
      "outputs": [
        {
          "name": "",
          "type": "bool"
        }
      ],
      "payable": false,
      "stateMutability": "nonpayable",
      "type": "function",
      "signature": "0x4036ab78"
    },
    {
      "constant": false,
      "inputs": [
        {
          "name": "_accAddress",
          "type": "address"
        },
        {
          "name": "_type",
          "type": "bool"
        }
      ],
      "name": "add",
      "outputs": [
        {
          "name": "",
          "type": "bool"
        }
      ],
      "payable": false,
      "stateMutability": "nonpayable",
      "type": "function",
      "signature": "0x6e983466"
    },
    {
      "constant": false,
      "inputs": [
        {
          "name": "_accAddress",
          "type": "address"
        }
      ],
      "name": "deleteAccount",
      "outputs": [
        {
          "name": "",
          "type": "bool"
        }
      ],
      "payable": false,
      "stateMutability": "nonpayable",
      "type": "function",
      "signature": "0x4c1b64cb"
    },
    {
      "constant": false,
      "inputs": [
        {
          "name": "_loanie",
          "type": "address"
        },
        {
          "name": "_points",
          "type": "uint256"
        }
      ],
      "name": "changePoints",
      "outputs": [
        {
          "name": "res",
          "type": "bool"
        }
      ],
      "payable": false,
      "stateMutability": "nonpayable",
      "type": "function",
      "signature": "0x12628bea"
    }
  ],
  "bytecode": "0x608060405234801561001057600080fd5b506106a3806100206000396000f3fe60806040526004361061006d576000357c0100000000000000000000000000000000000000000000000000000000900463ffffffff16806312628bea146100725780634036ab78146100e55780634c1b64cb146101385780636e983466146101a1578063b31610db14610216575b600080fd5b34801561007e57600080fd5b506100cb6004803603604081101561009557600080fd5b81019080803573ffffffffffffffffffffffffffffffffffffffff1690602001909291908035906020019092919050505061027b565b604051808215151515815260200191505060405180910390f35b3480156100f157600080fd5b5061011e6004803603602081101561010857600080fd5b8101908080359060200190929190505050610325565b604051808215151515815260200191505060405180910390f35b34801561014457600080fd5b506101876004803603602081101561015b57600080fd5b81019080803573ffffffffffffffffffffffffffffffffffffffff16906020019092919050505061035b565b604051808215151515815260200191505060405180910390f35b3480156101ad57600080fd5b506101fc600480360360408110156101c457600080fd5b81019080803573ffffffffffffffffffffffffffffffffffffffff169060200190929190803515159060200190929190505050610412565b604051808215151515815260200191505060405180910390f35b34801561022257600080fd5b506102656004803603602081101561023957600080fd5b81019080803573ffffffffffffffffffffffffffffffffffffffff16906020019092919050505061052a565b6040518082815260200191505060405180910390f35b6000806102878461052a565b90507fffffffffffffffffffffffffffffffffffffffffffffffffffffffffffffffff8114151561031957826000828154811015156102c257fe5b90600052602060002090600302016001016000828254019250508190555060056000828154811015156102f157fe5b906000526020600020906003020160020160008282540192505081905550600191505061031f565b60009150505b92915050565b6000808281548110151561033557fe5b906000526020600020906003020160000160149054906101000a900460ff169050919050565b6000806103678361052a565b90507fffffffffffffffffffffffffffffffffffffffffffffffffffffffffffffffff81141515610407576000818154811015156103a157fe5b9060005260206000209060030201600080820160006101000a81549073ffffffffffffffffffffffffffffffffffffffff02191690556000820160146101000a81549060ff0219169055600182016000905560028201600090555050600191505061040d565b60009150505b919050565b600061041d836105f1565b151561051f5761042b610636565b6080604051908101604052808573ffffffffffffffffffffffffffffffffffffffff168152602001841515815260200160008152602001600081525090506000819080600181540180825580915050906001820390600052602060002090600302016000909192909190915060008201518160000160006101000a81548173ffffffffffffffffffffffffffffffffffffffff021916908373ffffffffffffffffffffffffffffffffffffffff16021790555060208201518160000160146101000a81548160ff02191690831515021790555060408201518160010155606082015181600201555050506001915050610524565b600090505b92915050565b600080600090505b6000805490508110156105c7578273ffffffffffffffffffffffffffffffffffffffff1660008281548110151561056557fe5b906000526020600020906003020160000160009054906101000a900473ffffffffffffffffffffffffffffffffffffffff1673ffffffffffffffffffffffffffffffffffffffff1614156105bc57809150506105ec565b600181019050610532565b507fffffffffffffffffffffffffffffffffffffffffffffffffffffffffffffffff90505b919050565b60007fffffffffffffffffffffffffffffffffffffffffffffffffffffffffffffffff61061d8361052a565b141561062c5760009050610631565b600190505b919050565b608060405190810160405280600073ffffffffffffffffffffffffffffffffffffffff1681526020016000151581526020016000815260200160008152509056fea165627a7a72305820d56e8c703a3f9857fc377eec9498a3f9ae845fa02752d0e2c028c16afdb6e7c60029",
  "source": "pragma solidity >=0.4.21 <0.7.0;\r\n\r\ncontract Accounts{\r\n\tstruct Account{\r\n\t\taddress addr;\r\n\t\tbool typee;//0 for user, 1 for org\r\n\t\tuint256 points; // 0 for init and 0 for any organization\r\n\t\tuint256 optimalPoints; // 0 for init user and always 0 for organization\r\n\t}\r\n\tAccount []  accounts;\r\n\tconstructor() public{\r\n\t\t\r\n\t}\r\n\tfunction getIndex(address _accountAddress) public returns(int256){\r\n\t\tfor(uint256 i = 0; i<accounts.length; i += 1)\r\n\t\t{\r\n\t\t\tif(accounts[i].addr == _accountAddress)\r\n\t\t\t\treturn int256(i);\r\n\t\t}\r\n\t\treturn -1;\r\n\r\n\t}\r\n\tfunction getType(uint index) public returns(bool){\r\n\t\treturn accounts[index].typee;\r\n\t}\r\n\tfunction add(address _accAddress, bool _type) public returns(bool){\r\n\t\tif (!accountExists(_accAddress)){\r\n\t\t\tAccount memory acc = Account(_accAddress, _type,0,0);\r\n\t\t\taccounts.push(acc);\r\n\t\t\treturn true;\r\n\t\t}\r\n\t\treturn false;\r\n\r\n\t}\r\n\tfunction accountExists(address _accAddress) internal returns(bool){\r\n\t\tif (getIndex(_accAddress) == -1)\r\n\t\t\treturn false;\r\n\t\treturn true;\r\n\t} \r\n\r\n\tfunction deleteAccount(address _accAddress)public returns(bool){\r\n\t\tint256 myIndex=getIndex(_accAddress);\r\n\t\tif(myIndex != -1)\r\n\t\t{\r\n\t\t\tdelete accounts[uint256(myIndex)];\r\n\t\t\treturn true;\r\n\t\t}\r\n\t\treturn false;\t\t\r\n\t}\r\n\tfunction changePoints (address _loanie,uint256 _points)public returns(bool res)\r\n\t{\r\n\t\tint256 myIndex=getIndex(_loanie);\r\n\t\tif(myIndex != -1)\r\n\t\t{\r\n\t\t\taccounts[uint256(myIndex)].points+=_points;\r\n\t\t\taccounts[uint256(myIndex)].optimalPoints+=5;\r\n\t\t\treturn true;\r\n\t\t}\r\n\t\treturn false;\r\n\t}\r\n\t\r\n}",
  "sourcePath": "C:\\Users\\pc\\Desktop\\BlockchainCreditBureau\\contracts\\Accounts.sol",
  "compiler": {
    "name": "solc",
    "version": "0.5.0+commit.1d4f565a.Emscripten.clang"
  },
  "schemaVersion": "3.0.1",
  "updatedAt": "2020-05-25T12:10:18.628Z",
  "devdoc": {
    "methods": {}
  },
  "userdoc": {
    "methods": {}
  }
}