{
  "contractName": "Loans",
  "abi": [
    {
      "inputs": [],
      "payable": false,
      "stateMutability": "nonpayable",
      "type": "constructor",
      "signature": "constructor"
    },
    {
      "anonymous": false,
      "inputs": [
        {
          "indexed": false,
          "name": "_amount",
          "type": "uint256[]"
        },
        {
          "indexed": false,
          "name": "_payDate",
          "type": "uint256[]"
        },
        {
          "indexed": false,
          "name": "_payOutDate",
          "type": "uint256[]"
        },
        {
          "indexed": false,
          "name": "_paid",
          "type": "bool[]"
        }
      ],
      "name": "getLoanInstallments",
      "type": "event",
      "signature": "0xbfc6bd82e4340e6a431f44fa56e04b0f2ee766eadb23aae95b38adb991bd3fd5"
    },
    {
      "constant": false,
      "inputs": [
        {
          "name": "_accountsContractAddress",
          "type": "address"
        }
      ],
      "name": "setAccountsContractAddress",
      "outputs": [],
      "payable": false,
      "stateMutability": "nonpayable",
      "type": "function",
      "signature": "0x27b5f90c"
    },
    {
      "constant": false,
      "inputs": [
        {
          "name": "_loanReceiver",
          "type": "address"
        },
        {
          "name": "_loaner",
          "type": "address"
        },
        {
          "name": "_loanAmount",
          "type": "uint256"
        },
        {
          "name": "_type",
          "type": "bool"
        },
        {
          "name": "_installmentsNum",
          "type": "uint128"
        },
        {
          "name": "_interest",
          "type": "uint128"
        }
      ],
      "name": "add",
      "outputs": [],
      "payable": false,
      "stateMutability": "nonpayable",
      "type": "function",
      "signature": "0x83617c9d"
    },
    {
      "constant": false,
      "inputs": [
        {
          "name": "_loanId",
          "type": "uint256"
        },
        {
          "name": "_loanie",
          "type": "address"
        }
      ],
      "name": "confirmLoan",
      "outputs": [
        {
          "name": "",
          "type": "bool"
        }
      ],
      "payable": false,
      "stateMutability": "nonpayable",
      "type": "function",
      "signature": "0xb224f3ec"
    },
    {
      "constant": false,
      "inputs": [
        {
          "name": "_loanId",
          "type": "uint256"
        },
        {
          "name": "_loanie",
          "type": "address"
        }
      ],
      "name": "rejectLoan",
      "outputs": [
        {
          "name": "",
          "type": "bool"
        }
      ],
      "payable": false,
      "stateMutability": "nonpayable",
      "type": "function",
      "signature": "0x990d6e1f"
    },
    {
      "constant": false,
      "inputs": [],
      "name": "getPendingLoansLength",
      "outputs": [
        {
          "name": "",
          "type": "uint256"
        }
      ],
      "payable": false,
      "stateMutability": "nonpayable",
      "type": "function",
      "signature": "0xe70f3732"
    },
    {
      "constant": false,
      "inputs": [
        {
          "name": "_loanie",
          "type": "address"
        }
      ],
      "name": "getPendingLoansList",
      "outputs": [
        {
          "components": [
            {
              "name": "id",
              "type": "uint256"
            },
            {
              "name": "loanReceiver",
              "type": "address"
            },
            {
              "name": "loaner",
              "type": "address"
            },
            {
              "name": "loanAmount",
              "type": "uint256"
            },
            {
              "name": "installmentsNum",
              "type": "uint128"
            },
            {
              "name": "interest",
              "type": "uint128"
            }
          ],
          "name": "",
          "type": "tuple[]"
        }
      ],
      "payable": false,
      "stateMutability": "nonpayable",
      "type": "function",
      "signature": "0x8379c520"
    },
    {
      "constant": false,
      "inputs": [
        {
          "name": "_loaner",
          "type": "address"
        }
      ],
      "name": "getLoanerLoans",
      "outputs": [
        {
          "components": [
            {
              "name": "id",
              "type": "uint256"
            },
            {
              "name": "loanReceiver",
              "type": "address"
            },
            {
              "name": "loaner",
              "type": "address"
            },
            {
              "name": "loanAmount",
              "type": "uint256"
            },
            {
              "name": "installmentsNum",
              "type": "uint128"
            },
            {
              "name": "interest",
              "type": "uint128"
            }
          ],
          "name": "",
          "type": "tuple[]"
        }
      ],
      "payable": false,
      "stateMutability": "nonpayable",
      "type": "function",
      "signature": "0x3fee8801"
    },
    {
      "constant": false,
      "inputs": [
        {
          "name": "_loaner",
          "type": "address"
        }
      ],
      "name": "getLoanerLoansLen",
      "outputs": [
        {
          "name": "",
          "type": "uint256"
        }
      ],
      "payable": false,
      "stateMutability": "nonpayable",
      "type": "function",
      "signature": "0x10dfdebf"
    },
    {
      "constant": false,
      "inputs": [
        {
          "name": "_loanie",
          "type": "address"
        }
      ],
      "name": "uGetMyLoans",
      "outputs": [
        {
          "components": [
            {
              "name": "id",
              "type": "uint256"
            },
            {
              "name": "loanReceiver",
              "type": "address"
            },
            {
              "name": "loaner",
              "type": "address"
            },
            {
              "name": "loanAmount",
              "type": "uint256"
            },
            {
              "name": "installmentsNum",
              "type": "uint128"
            },
            {
              "name": "interest",
              "type": "uint128"
            }
          ],
          "name": "",
          "type": "tuple[]"
        }
      ],
      "payable": false,
      "stateMutability": "nonpayable",
      "type": "function",
      "signature": "0xeb9c3f1c"
    },
    {
      "constant": false,
      "inputs": [
        {
          "name": "_loanie",
          "type": "address"
        }
      ],
      "name": "uGetMyLoansLen",
      "outputs": [
        {
          "name": "",
          "type": "uint256"
        }
      ],
      "payable": false,
      "stateMutability": "nonpayable",
      "type": "function",
      "signature": "0x63955849"
    },
    {
      "constant": false,
      "inputs": [
        {
          "name": "_loanAmount",
          "type": "uint256"
        },
        {
          "name": "_interest",
          "type": "uint128"
        },
        {
          "name": "_installmentsNum",
          "type": "uint128"
        },
        {
          "name": "_id",
          "type": "uint256"
        },
        {
          "name": "_initialDate",
          "type": "uint256"
        }
      ],
      "name": "initializeInstallments",
      "outputs": [
        {
          "name": "",
          "type": "bool"
        }
      ],
      "payable": false,
      "stateMutability": "nonpayable",
      "type": "function",
      "signature": "0xf89bd7a9"
    },
    {
      "constant": false,
      "inputs": [
        {
          "name": "_id",
          "type": "uint256"
        }
      ],
      "name": "getInstallments",
      "outputs": [
        {
          "components": [
            {
              "name": "amount",
              "type": "uint256"
            },
            {
              "name": "payDate",
              "type": "uint256"
            },
            {
              "name": "paidOutDate",
              "type": "uint256"
            },
            {
              "name": "paid",
              "type": "bool"
            }
          ],
          "name": "",
          "type": "tuple[]"
        }
      ],
      "payable": false,
      "stateMutability": "nonpayable",
      "type": "function",
      "signature": "0x6ecc9ad9"
    },
    {
      "constant": false,
      "inputs": [
        {
          "name": "_id",
          "type": "uint256"
        }
      ],
      "name": "getInstallmentsLen",
      "outputs": [
        {
          "name": "",
          "type": "uint256"
        }
      ],
      "payable": false,
      "stateMutability": "nonpayable",
      "type": "function",
      "signature": "0xae6d34a2"
    },
    {
      "constant": false,
      "inputs": [
        {
          "name": "_id",
          "type": "uint256"
        }
      ],
      "name": "getMyInstallments",
      "outputs": [
        {
          "name": "res",
          "type": "bool"
        }
      ],
      "payable": false,
      "stateMutability": "nonpayable",
      "type": "function",
      "signature": "0x6b917d39"
    },
    {
      "constant": false,
      "inputs": [
        {
          "name": "loaner",
          "type": "address"
        },
        {
          "name": "_index",
          "type": "uint256"
        },
        {
          "name": "_id",
          "type": "uint256"
        }
      ],
      "name": "confirmLoanInstallment",
      "outputs": [
        {
          "name": "",
          "type": "bool"
        }
      ],
      "payable": false,
      "stateMutability": "nonpayable",
      "type": "function",
      "signature": "0x5c47e5b0"
    },
    {
      "constant": false,
      "inputs": [
        {
          "name": "_loanie",
          "type": "address"
        },
        {
          "name": "_points",
          "type": "uint256"
        }
      ],
      "name": "setNewPoints",
      "outputs": [
        {
          "name": "res",
          "type": "bool"
        }
      ],
      "payable": false,
      "stateMutability": "nonpayable",
      "type": "function",
      "signature": "0x6f2e380d"
    }
  ],
  "bytecode": "0x608060405234801561001057600080fd5b506000600581905550612f11806100286000396000f3fe6080604052600436106100e6576000357c0100000000000000000000000000000000000000000000000000000000900463ffffffff16806310dfdebf146100eb57806327b5f90c146101285780633fee8801146101515780635c47e5b01461018e57806363955849146101cb5780636b917d39146102085780636ecc9ad9146102455780636f2e380d1461028257806383617c9d146102bf5780638379c520146102e8578063990d6e1f14610325578063ae6d34a214610362578063b224f3ec1461039f578063e70f3732146103dc578063eb9c3f1c14610407578063f89bd7a914610444575b600080fd5b3480156100f757600080fd5b50610112600480360361010d91908101906127dd565b610481565b60405161011f9190612d80565b60405180910390f35b34801561013457600080fd5b5061014f600480360361014a91908101906127dd565b6104cd565b005b34801561015d57600080fd5b50610178600480360361017391908101906127dd565b610510565b6040516101859190612ce2565b60405180910390f35b34801561019a57600080fd5b506101b560048036036101b091908101906128cb565b610703565b6040516101c29190612d65565b60405180910390f35b3480156101d757600080fd5b506101f260048036036101ed91908101906127dd565b610b5a565b6040516101ff9190612d80565b60405180910390f35b34801561021457600080fd5b5061022f600480360361022a9190810190612943565b610ba6565b60405161023c9190612d65565b60405180910390f35b34801561025157600080fd5b5061026c60048036036102679190810190612943565b610e20565b6040516102799190612cc0565b60405180910390f35b34801561028e57600080fd5b506102a960048036036102a4919081019061288f565b610ecc565b6040516102b69190612d65565b60405180910390f35b3480156102cb57600080fd5b506102e660048036036102e19190810190612806565b610fa8565b005b3480156102f457600080fd5b5061030f600480360361030a91908101906127dd565b611506565b60405161031c9190612ce2565b60405180910390f35b34801561033157600080fd5b5061034c6004803603610347919081019061296c565b611840565b6040516103599190612d65565b60405180910390f35b34801561036e57600080fd5b5061038960048036036103849190810190612943565b611a62565b6040516103969190612d80565b60405180910390f35b3480156103ab57600080fd5b506103c660048036036103c1919081019061296c565b611a82565b6040516103d39190612d65565b60405180910390f35b3480156103e857600080fd5b506103f16121b3565b6040516103fe9190612d80565b60405180910390f35b34801561041357600080fd5b5061042e600480360361042991908101906127dd565b6121bd565b60405161043b9190612ce2565b60405180910390f35b34801561045057600080fd5b5061046b600480360361046691908101906129a8565b6123b0565b6040516104789190612d65565b60405180910390f35b6000600460008373ffffffffffffffffffffffffffffffffffffffff1673ffffffffffffffffffffffffffffffffffffffff168152602001908152602001600020805490509050919050565b806000806101000a81548173ffffffffffffffffffffffffffffffffffffffff021916908373ffffffffffffffffffffffffffffffffffffffff16021790555050565b6060600460008373ffffffffffffffffffffffffffffffffffffffff1673ffffffffffffffffffffffffffffffffffffffff168152602001908152602001600020805480602002602001604051908101604052809291908181526020016000905b828210156106f8578382906000526020600020906005020160c06040519081016040529081600082015481526020016001820160009054906101000a900473ffffffffffffffffffffffffffffffffffffffff1673ffffffffffffffffffffffffffffffffffffffff1673ffffffffffffffffffffffffffffffffffffffff1681526020016002820160009054906101000a900473ffffffffffffffffffffffffffffffffffffffff1673ffffffffffffffffffffffffffffffffffffffff1673ffffffffffffffffffffffffffffffffffffffff168152602001600382015481526020016004820160009054906101000a90046fffffffffffffffffffffffffffffffff166fffffffffffffffffffffffffffffffff166fffffffffffffffffffffffffffffffff1681526020016004820160109054906101000a90046fffffffffffffffffffffffffffffffff166fffffffffffffffffffffffffffffffff166fffffffffffffffffffffffffffffffff168152505081526020019060010190610571565b505050509050919050565b600060011515600360008481526020019081526020016000208481548110151561072957fe5b906000526020600020906004020160030160009054906101000a900460ff16151514156107595760009050610b53565b6001600360008481526020019081526020016000208481548110151561077b57fe5b906000526020600020906004020160030160006101000a81548160ff0219169083151502179055504260036000848152602001908152602001600020848154811015156107c457fe5b9060005260206000209060040201600201819055506060600460008673ffffffffffffffffffffffffffffffffffffffff1673ffffffffffffffffffffffffffffffffffffffff168152602001908152602001600020805480602002602001604051908101604052809291908181526020016000905b828210156109c1578382906000526020600020906005020160c06040519081016040529081600082015481526020016001820160009054906101000a900473ffffffffffffffffffffffffffffffffffffffff1673ffffffffffffffffffffffffffffffffffffffff1673ffffffffffffffffffffffffffffffffffffffff1681526020016002820160009054906101000a900473ffffffffffffffffffffffffffffffffffffffff1673ffffffffffffffffffffffffffffffffffffffff1673ffffffffffffffffffffffffffffffffffffffff168152602001600382015481526020016004820160009054906101000a90046fffffffffffffffffffffffffffffffff166fffffffffffffffffffffffffffffffff166fffffffffffffffffffffffffffffffff1681526020016004820160109054906101000a90046fffffffffffffffffffffffffffffffff166fffffffffffffffffffffffffffffffff166fffffffffffffffffffffffffffffffff16815250508152602001906001019061083a565b5050505090506109cf612615565b60008090505b8251811015610a2b5782818151811015156109ec57fe5b9060200190602002015160000151851415610a20578281815181101515610a0f57fe5b906020019060200201519150610a2b565b6001810190506109d5565b50600081602001519050600062278d009050600062093a80905060006005905060006201518090506000600360008b81526020019081526020016000208b815481101515610a7557fe5b9060005260206000209060040201600101546003850286600360008e81526020019081526020016000208e815481101515610aac57fe5b90600052602060002090600402016002015401010390508181111515610adc57610ad68684610ecc565b50610b46565b8381111515610afb57600183039250610af58684610ecc565b50610b45565b6000600190505b81851015610b3857818186021115610b1957610b38565b6000841415610b2757610b38565b600184039350600181019050610b02565b50610b438684610ecc565b505b5b6001985050505050505050505b9392505050565b6000600260008373ffffffffffffffffffffffffffffffffffffffff1673ffffffffffffffffffffffffffffffffffffffff168152602001908152602001600020805490509050919050565b6000803390506000610bb784611a62565b9050606081604051908082528060200260200182016040528015610bf557816020015b610be261269c565b815260200190600190039081610bda5790505b509050610c0185610e20565b9050606082604051908082528060200260200182016040528015610c345781602001602082028038833980820191505090505b509050606083604051908082528060200260200182016040528015610c685781602001602082028038833980820191505090505b509050606084604051908082528060200260200182016040528015610c9c5781602001602082028038833980820191505090505b509050606085604051908082528060200260200182016040528015610cd05781602001602082028038833980820191505090505b50905060008090505b86811015610dd2578581815181101515610cef57fe5b90602001906020020151600001518582815181101515610d0b57fe5b90602001906020020181815250508581815181101515610d2757fe5b90602001906020020151602001518482815181101515610d4357fe5b90602001906020020181815250508581815181101515610d5f57fe5b90602001906020020151604001518382815181101515610d7b57fe5b90602001906020020181815250508581815181101515610d9757fe5b90602001906020020151606001518282815181101515610db357fe5b9060200190602002019015159081151581525050600181019050610cd9565b507fbfc6bd82e4340e6a431f44fa56e04b0f2ee766eadb23aae95b38adb991bd3fd584848484604051610e089493929190612d04565b60405180910390a16001975050505050505050919050565b606060036000838152602001908152602001600020805480602002602001604051908101604052809291908181526020016000905b82821015610ec15783829060005260206000209060040201608060405190810160405290816000820154815260200160018201548152602001600282015481526020016003820160009054906101000a900460ff16151515158152505081526020019060010190610e55565b505050509050919050565b6000806000809054906101000a900473ffffffffffffffffffffffffffffffffffffffff1690508073ffffffffffffffffffffffffffffffffffffffff166312628bea85856040518363ffffffff167c0100000000000000000000000000000000000000000000000000000000028152600401610f4a929190612c97565b602060405180830381600087803b158015610f6457600080fd5b505af1158015610f78573d6000803e3d6000fd5b505050506040513d601f19601f82011682018060405250610f9c919081019061291a565b50600191505092915050565b6000429050610fb5612615565b60c0604051908101604052808381526020018973ffffffffffffffffffffffffffffffffffffffff1681526020018873ffffffffffffffffffffffffffffffffffffffff168152602001878152602001856fffffffffffffffffffffffffffffffff168152602001846fffffffffffffffffffffffffffffffff168152509050841561135c57600260008973ffffffffffffffffffffffffffffffffffffffff1673ffffffffffffffffffffffffffffffffffffffff16815260200190815260200160002081908060018154018082558091505090600182039060005260206000209060050201600090919290919091506000820151816000015560208201518160010160006101000a81548173ffffffffffffffffffffffffffffffffffffffff021916908373ffffffffffffffffffffffffffffffffffffffff16021790555060408201518160020160006101000a81548173ffffffffffffffffffffffffffffffffffffffff021916908373ffffffffffffffffffffffffffffffffffffffff1602179055506060820151816003015560808201518160040160006101000a8154816fffffffffffffffffffffffffffffffff02191690836fffffffffffffffffffffffffffffffff16021790555060a08201518160040160106101000a8154816fffffffffffffffffffffffffffffffff02191690836fffffffffffffffffffffffffffffffff160217905550505050600460008873ffffffffffffffffffffffffffffffffffffffff1673ffffffffffffffffffffffffffffffffffffffff16815260200190815260200160002081908060018154018082558091505090600182039060005260206000209060050201600090919290919091506000820151816000015560208201518160010160006101000a81548173ffffffffffffffffffffffffffffffffffffffff021916908373ffffffffffffffffffffffffffffffffffffffff16021790555060408201518160020160006101000a81548173ffffffffffffffffffffffffffffffffffffffff021916908373ffffffffffffffffffffffffffffffffffffffff1602179055506060820151816003015560808201518160040160006101000a8154816fffffffffffffffffffffffffffffffff02191690836fffffffffffffffffffffffffffffffff16021790555060a08201518160040160106101000a8154816fffffffffffffffffffffffffffffffff02191690836fffffffffffffffffffffffffffffffff1602179055505050506114fc565b600160008973ffffffffffffffffffffffffffffffffffffffff1673ffffffffffffffffffffffffffffffffffffffff16815260200190815260200160002081908060018154018082558091505090600182039060005260206000209060050201600090919290919091506000820151816000015560208201518160010160006101000a81548173ffffffffffffffffffffffffffffffffffffffff021916908373ffffffffffffffffffffffffffffffffffffffff16021790555060408201518160020160006101000a81548173ffffffffffffffffffffffffffffffffffffffff021916908373ffffffffffffffffffffffffffffffffffffffff1602179055506060820151816003015560808201518160040160006101000a8154816fffffffffffffffffffffffffffffffff02191690836fffffffffffffffffffffffffffffffff16021790555060a08201518160040160106101000a8154816fffffffffffffffffffffffffffffffff02191690836fffffffffffffffffffffffffffffffff16021790555050505060016005600082825401925050819055505b5050505050505050565b60608060055460405190808252806020026020018201604052801561154557816020015b6115326126c7565b81526020019060019003908161152a5790505b509050600080905060008090505b600160008673ffffffffffffffffffffffffffffffffffffffff1673ffffffffffffffffffffffffffffffffffffffff16815260200190815260200160002080549050811015611835578473ffffffffffffffffffffffffffffffffffffffff16600160008773ffffffffffffffffffffffffffffffffffffffff1673ffffffffffffffffffffffffffffffffffffffff1681526020019081526020016000208281548110151561160057fe5b906000526020600020906005020160010160009054906101000a900473ffffffffffffffffffffffffffffffffffffffff1673ffffffffffffffffffffffffffffffffffffffff16141561182a57600160008673ffffffffffffffffffffffffffffffffffffffff1673ffffffffffffffffffffffffffffffffffffffff1681526020019081526020016000208181548110151561169a57fe5b906000526020600020906005020160c06040519081016040529081600082015481526020016001820160009054906101000a900473ffffffffffffffffffffffffffffffffffffffff1673ffffffffffffffffffffffffffffffffffffffff1673ffffffffffffffffffffffffffffffffffffffff1681526020016002820160009054906101000a900473ffffffffffffffffffffffffffffffffffffffff1673ffffffffffffffffffffffffffffffffffffffff1673ffffffffffffffffffffffffffffffffffffffff168152602001600382015481526020016004820160009054906101000a90046fffffffffffffffffffffffffffffffff166fffffffffffffffffffffffffffffffff166fffffffffffffffffffffffffffffffff1681526020016004820160109054906101000a90046fffffffffffffffffffffffffffffffff166fffffffffffffffffffffffffffffffff166fffffffffffffffffffffffffffffffff1681525050838381518110151561181657fe5b906020019060200201819052506001820191505b600181019050611553565b508192505050919050565b60008061184d848461251f565b90507fffffffffffffffffffffffffffffffffffffffffffffffffffffffffffffffff811415611881576000915050611a5c565b60008190508373ffffffffffffffffffffffffffffffffffffffff16600160008673ffffffffffffffffffffffffffffffffffffffff1673ffffffffffffffffffffffffffffffffffffffff168152602001908152602001600020828154811015156118e957fe5b906000526020600020906005020160010160009054906101000a900473ffffffffffffffffffffffffffffffffffffffff1673ffffffffffffffffffffffffffffffffffffffff1614151561194357600092505050611a5c565b600160008573ffffffffffffffffffffffffffffffffffffffff1673ffffffffffffffffffffffffffffffffffffffff1681526020019081526020016000208181548110151561198f57fe5b90600052602060002090600502016000808201600090556001820160006101000a81549073ffffffffffffffffffffffffffffffffffffffff02191690556002820160006101000a81549073ffffffffffffffffffffffffffffffffffffffff021916905560038201600090556004820160006101000a8154906fffffffffffffffffffffffffffffffff02191690556004820160106101000a8154906fffffffffffffffffffffffffffffffff0219169055505060016005600082825403925050819055506001925050505b92915050565b600060036000838152602001908152602001600020805490509050919050565b600080611a8f848461251f565b90507fffffffffffffffffffffffffffffffffffffffffffffffffffffffffffffffff811415611ac35760009150506121ad565b60008190508373ffffffffffffffffffffffffffffffffffffffff16600160008673ffffffffffffffffffffffffffffffffffffffff1673ffffffffffffffffffffffffffffffffffffffff16815260200190815260200160002082815481101515611b2b57fe5b906000526020600020906005020160010160009054906101000a900473ffffffffffffffffffffffffffffffffffffffff1673ffffffffffffffffffffffffffffffffffffffff16141515611b85576000925050506121ad565b611b8d612615565b600160008673ffffffffffffffffffffffffffffffffffffffff1673ffffffffffffffffffffffffffffffffffffffff16815260200190815260200160002082815481101515611bd957fe5b906000526020600020906005020160c06040519081016040529081600082015481526020016001820160009054906101000a900473ffffffffffffffffffffffffffffffffffffffff1673ffffffffffffffffffffffffffffffffffffffff1673ffffffffffffffffffffffffffffffffffffffff1681526020016002820160009054906101000a900473ffffffffffffffffffffffffffffffffffffffff1673ffffffffffffffffffffffffffffffffffffffff1673ffffffffffffffffffffffffffffffffffffffff168152602001600382015481526020016004820160009054906101000a90046fffffffffffffffffffffffffffffffff166fffffffffffffffffffffffffffffffff166fffffffffffffffffffffffffffffffff1681526020016004820160109054906101000a90046fffffffffffffffffffffffffffffffff166fffffffffffffffffffffffffffffffff166fffffffffffffffffffffffffffffffff16815250509050600081604001519050600260008773ffffffffffffffffffffffffffffffffffffffff1673ffffffffffffffffffffffffffffffffffffffff16815260200190815260200160002082908060018154018082558091505090600182039060005260206000209060050201600090919290919091506000820151816000015560208201518160010160006101000a81548173ffffffffffffffffffffffffffffffffffffffff021916908373ffffffffffffffffffffffffffffffffffffffff16021790555060408201518160020160006101000a81548173ffffffffffffffffffffffffffffffffffffffff021916908373ffffffffffffffffffffffffffffffffffffffff1602179055506060820151816003015560808201518160040160006101000a8154816fffffffffffffffffffffffffffffffff02191690836fffffffffffffffffffffffffffffffff16021790555060a08201518160040160106101000a8154816fffffffffffffffffffffffffffffffff02191690836fffffffffffffffffffffffffffffffff160217905550505050600460008273ffffffffffffffffffffffffffffffffffffffff1673ffffffffffffffffffffffffffffffffffffffff16815260200190815260200160002082908060018154018082558091505090600182039060005260206000209060050201600090919290919091506000820151816000015560208201518160010160006101000a81548173ffffffffffffffffffffffffffffffffffffffff021916908373ffffffffffffffffffffffffffffffffffffffff16021790555060408201518160020160006101000a81548173ffffffffffffffffffffffffffffffffffffffff021916908373ffffffffffffffffffffffffffffffffffffffff1602179055506060820151816003015560808201518160040160006101000a8154816fffffffffffffffffffffffffffffffff02191690836fffffffffffffffffffffffffffffffff16021790555060a08201518160040160106101000a8154816fffffffffffffffffffffffffffffffff02191690836fffffffffffffffffffffffffffffffff160217905550505050600160008773ffffffffffffffffffffffffffffffffffffffff1673ffffffffffffffffffffffffffffffffffffffff168152602001908152602001600020838154811015156120ba57fe5b90600052602060002090600502016000808201600090556001820160006101000a81549073ffffffffffffffffffffffffffffffffffffffff02191690556002820160006101000a81549073ffffffffffffffffffffffffffffffffffffffff021916905560038201600090556004820160006101000a8154906fffffffffffffffffffffffffffffffff02191690556004820160106101000a8154906fffffffffffffffffffffffffffffffff02191690555050600160056000828254039250508190555060004290506121a283606001518460a0015185608001518660000151856123b0565b506001955050505050505b92915050565b6000600554905090565b6060600260008373ffffffffffffffffffffffffffffffffffffffff1673ffffffffffffffffffffffffffffffffffffffff168152602001908152602001600020805480602002602001604051908101604052809291908181526020016000905b828210156123a5578382906000526020600020906005020160c06040519081016040529081600082015481526020016001820160009054906101000a900473ffffffffffffffffffffffffffffffffffffffff1673ffffffffffffffffffffffffffffffffffffffff1673ffffffffffffffffffffffffffffffffffffffff1681526020016002820160009054906101000a900473ffffffffffffffffffffffffffffffffffffffff1673ffffffffffffffffffffffffffffffffffffffff1673ffffffffffffffffffffffffffffffffffffffff168152602001600382015481526020016004820160009054906101000a90046fffffffffffffffffffffffffffffffff166fffffffffffffffffffffffffffffffff166fffffffffffffffffffffffffffffffff1681526020016004820160109054906101000a90046fffffffffffffffffffffffffffffffff166fffffffffffffffffffffffffffffffff166fffffffffffffffffffffffffffffffff16815250508152602001906001019061221e565b505050509050919050565b60008062278d009050600081840190506000866fffffffffffffffffffffffffffffffff16898115156123df57fe5b06905080890398506000876fffffffffffffffffffffffffffffffff168a81151561240657fe5b04905060008090505b886fffffffffffffffffffffffffffffffff1681101561250d57600189036fffffffffffffffffffffffffffffffff1681141561244c5782820191505b61245461274e565b60806040519081016040528084815260200186815260200160008152602001600015158152509050600360008a8152602001908152602001600020819080600181540180825580915050906001820390600052602060002090600402016000909192909190915060008201518160000155602082015181600101556040820151816002015560608201518160030160006101000a81548160ff02191690831515021790555050505085850194505060018101905061240f565b50600194505050505095945050505050565b600080600090505b600160008473ffffffffffffffffffffffffffffffffffffffff1673ffffffffffffffffffffffffffffffffffffffff168152602001908152602001600020805490508110156125ea5783600160008573ffffffffffffffffffffffffffffffffffffffff1673ffffffffffffffffffffffffffffffffffffffff168152602001908152602001600020828154811015156125be57fe5b90600052602060002090600502016000015414156125df578091505061260f565b600181019050612527565b507fffffffffffffffffffffffffffffffffffffffffffffffffffffffffffffffff90505b92915050565b60c06040519081016040528060008152602001600073ffffffffffffffffffffffffffffffffffffffff168152602001600073ffffffffffffffffffffffffffffffffffffffff1681526020016000815260200160006fffffffffffffffffffffffffffffffff16815260200160006fffffffffffffffffffffffffffffffff1681525090565b6080604051908101604052806000815260200160008152602001600081526020016000151581525090565b60c06040519081016040528060008152602001600073ffffffffffffffffffffffffffffffffffffffff168152602001600073ffffffffffffffffffffffffffffffffffffffff1681526020016000815260200160006fffffffffffffffffffffffffffffffff16815260200160006fffffffffffffffffffffffffffffffff1681525090565b6080604051908101604052806000815260200160008152602001600081526020016000151581525090565b60006127858235612e93565b905092915050565b60006127998235612ea5565b905092915050565b60006127ad8251612ea5565b905092915050565b60006127c18235612eb1565b905092915050565b60006127d58235612ecd565b905092915050565b6000602082840312156127ef57600080fd5b60006127fd84828501612779565b91505092915050565b60008060008060008060c0878903121561281f57600080fd5b600061282d89828a01612779565b965050602061283e89828a01612779565b955050604061284f89828a016127c9565b945050606061286089828a0161278d565b935050608061287189828a016127b5565b92505060a061288289828a016127b5565b9150509295509295509295565b600080604083850312156128a257600080fd5b60006128b085828601612779565b92505060206128c1858286016127c9565b9150509250929050565b6000806000606084860312156128e057600080fd5b60006128ee86828701612779565b93505060206128ff868287016127c9565b9250506040612910868287016127c9565b9150509250925092565b60006020828403121561292c57600080fd5b600061293a848285016127a1565b91505092915050565b60006020828403121561295557600080fd5b6000612963848285016127c9565b91505092915050565b6000806040838503121561297f57600080fd5b600061298d858286016127c9565b925050602061299e85828601612779565b9150509250929050565b600080600080600060a086880312156129c057600080fd5b60006129ce888289016127c9565b95505060206129df888289016127b5565b94505060406129f0888289016127b5565b9350506060612a01888289016127c9565b9250506080612a12888289016127c9565b9150509295509295909350565b612a2881612e2f565b82525050565b6000612a3982612dcf565b808452602084019350612a4b83612d9b565b60005b82811015612a7d57612a61868351612b9a565b612a6a82612dfb565b9150602086019550600181019050612a4e565b50849250505092915050565b6000612a9482612dda565b808452602084019350612aa683612da8565b60005b82811015612ad857612abc868351612ba9565b612ac582612e08565b9150608086019550600181019050612aa9565b50849250505092915050565b6000612aef82612de5565b808452602084019350612b0183612db5565b60005b82811015612b3357612b17868351612bfe565b612b2082612e15565b915060c086019550600181019050612b04565b50849250505092915050565b6000612b4a82612df0565b808452602084019350612b5c83612dc2565b60005b82811015612b8e57612b72868351612c88565b612b7b82612e22565b9150602086019550600181019050612b5f565b50849250505092915050565b612ba381612e41565b82525050565b608082016000820151612bbf6000850182612c88565b506020820151612bd26020850182612c88565b506040820151612be56040850182612c88565b506060820151612bf86060850182612b9a565b50505050565b60c082016000820151612c146000850182612c88565b506020820151612c276020850182612a1f565b506040820151612c3a6040850182612a1f565b506060820151612c4d6060850182612c88565b506080820151612c606080850182612c79565b5060a0820151612c7360a0850182612c79565b50505050565b612c8281612e4d565b82525050565b612c9181612e89565b82525050565b6000604082019050612cac6000830185612a1f565b612cb96020830184612c88565b9392505050565b60006020820190508181036000830152612cda8184612a89565b905092915050565b60006020820190508181036000830152612cfc8184612ae4565b905092915050565b60006080820190508181036000830152612d1e8187612b3f565b90508181036020830152612d328186612b3f565b90508181036040830152612d468185612b3f565b90508181036060830152612d5a8184612a2e565b905095945050505050565b6000602082019050612d7a6000830184612b9a565b92915050565b6000602082019050612d956000830184612c88565b92915050565b6000602082019050919050565b6000602082019050919050565b6000602082019050919050565b6000602082019050919050565b600081519050919050565b600081519050919050565b600081519050919050565b600081519050919050565b6000602082019050919050565b6000602082019050919050565b6000602082019050919050565b6000602082019050919050565b6000612e3a82612e69565b9050919050565b60008115159050919050565b60006fffffffffffffffffffffffffffffffff82169050919050565b600073ffffffffffffffffffffffffffffffffffffffff82169050919050565b6000819050919050565b6000612e9e82612e69565b9050919050565b60008115159050919050565b60006fffffffffffffffffffffffffffffffff82169050919050565b600081905091905056fea265627a7a7230582036b9f1256da4ec086428f06b4b56f5156397a9cd4d06879d396d244d6ac8ce6b6c6578706572696d656e74616cf50037",
  "source": "//pragma solidity>=0.4.21<0.7.0;\r\npragma experimental ABIEncoderV2;\r\n\r\nimport \"./Accounts.sol\";\r\n\r\ncontract Loans {\r\n\r\n  struct  Installment{\r\n    uint256 amount;\r\n    uint256 payDate;\r\n    uint256 paidOutDate;\r\n    bool paid;\r\n  }\r\n  struct Loan\r\n  {\r\n    uint256  id;\r\n    address  loanReceiver;\r\n    address  loaner;\r\n    uint256  loanAmount;\r\n    uint128  installmentsNum;\r\n    uint128  interest;\r\n  }  \r\n\r\n  address accountsContractAddress;\r\n  mapping (address => Loan[]) pendingLoans;\r\n  mapping (address => Loan[]) loans;\r\n  mapping (uint256 => Installment[]) installments;\r\n  mapping (address => Loan[]) loanerLoans;\r\n\r\n  //To set the (loans contract) address deployed on the chain\r\n  function setAccountsContractAddress(address _accountsContractAddress) public\r\n  {\r\n    accountsContractAddress=_accountsContractAddress;\r\n  }\r\n\r\n  uint256 pendingLoansLength;\r\n \r\n  constructor() public{\r\n    pendingLoansLength = 0;\r\n  }\r\n event getLoanInstallments(uint256 []_amount,uint256 []_payDate,uint256 []_payOutDate,bool []_paid);\r\n  function add(address _loanReceiver, address _loaner, uint256 _loanAmount, bool _type, uint128 _installmentsNum, uint128 _interest) public {\r\n    uint256 id = now;\r\n     Loan memory loan = Loan(id, _loanReceiver, _loaner, _loanAmount, _installmentsNum, _interest);\r\n\r\n     if (_type){\r\n      loans[_loanReceiver].push(loan);\r\n      loanerLoans[_loaner].push(loan);\r\n     }\r\n     else\r\n     { \r\n      pendingLoans[_loanReceiver].push(loan);\r\n      pendingLoansLength += 1;\r\n     }\r\n   }\r\n  function searchPending(uint256 _loanId, address _loanie)private view returns (int256) \r\n  {\r\n    for(uint256 i = 0; i<pendingLoans[_loanie].length; i += 1)\r\n    {\r\n      if(pendingLoans[_loanie][i].id == _loanId)\r\n        return int256(i);\r\n    }\r\n    return -1;\r\n  }\r\n\r\n  \r\n  function confirmLoan(uint256 _loanId, address _loanie)\r\n    public\r\n    returns(bool)\r\n  {\r\n    int256 intIndex = searchPending(_loanId, _loanie);\r\n    if(intIndex == -1)\r\n      return false;\r\n\r\n    uint256 index = uint256(intIndex);// For indexing\r\n    if(pendingLoans[_loanie][index].loanReceiver!=_loanie)\r\n      return false;\r\n\r\n    Loans.Loan memory confimedLoan = pendingLoans[_loanie][index];\r\n    address _loaner = confimedLoan.loaner;\r\n    loans[_loanie].push(confimedLoan);\r\n    loanerLoans[_loaner].push(confimedLoan);\r\n    //uint length = loans.push(pendingLoans[_loanie][index]);\r\n    delete  pendingLoans[_loanie][index];\r\n    pendingLoansLength -= 1;\r\n    uint256 date = now;\r\n    initializeInstallments(confimedLoan.loanAmount,confimedLoan.interest,confimedLoan.installmentsNum,confimedLoan.id,date);\r\n    return true;\r\n\r\n  }\r\n  function rejectLoan(uint256 _loanId, address _loanie)public returns(bool){\r\n    int256 intIndex = searchPending(_loanId, _loanie);\r\n    if(intIndex == -1)\r\n      return false;\r\n\r\n    uint256 index = uint256(intIndex);// For indexing\r\n    if(pendingLoans[_loanie][index].loanReceiver!=_loanie)\r\n    {\r\n      return false;\r\n    }\r\n    delete  pendingLoans[_loanie][index];\r\n    pendingLoansLength -= 1;\r\n    return true;\r\n  }\r\n\r\n  //******************************************//\r\n  function getPendingLoansLength() public returns (uint256){\r\n    return pendingLoansLength;\r\n  }\r\n\r\n\r\n  /*Using just one function when compiling with:\r\n    pragma experimental ABIEncoderV2;*/\r\n  function getPendingLoansList (address _loanie) public returns(Loan [] memory) {\r\n    Loan [] memory myPendingLoans = new Loan [](pendingLoansLength);\r\n    uint256 counter = 0;\r\n\r\n    for(uint256 i = 0; i < pendingLoans[_loanie].length; i+=1){\r\n      if(pendingLoans[_loanie][i].loanReceiver == _loanie)\r\n      {\r\n        myPendingLoans[counter] = pendingLoans[_loanie][i];\r\n        counter+=1;\r\n      }\r\n    }\r\n    return myPendingLoans;\r\n  }\r\n  function getLoanerLoans(address _loaner)public returns (Loan [] memory)\r\n  {\r\n    return loanerLoans[_loaner];\r\n\r\n\r\n  }\r\n  function getLoanerLoansLen(address _loaner)public returns (uint256 )\r\n  {\r\n    return loanerLoans[_loaner].length;\r\n\r\n\r\n  }\r\n  \r\n /** function getLoans () public returns(Loan [] memory)  {\r\n      return loans;\r\n  }\r\n*/\r\n  /*function getUserPendingLoans(address _loanie)public \r\n  {\r\n    \r\n    for(uint256 i = 0; i<pendingLoans.length; i += 1)\r\n    {\r\n      if(pendingLoans[i].loanReceiver == _loanie)\r\n      {\r\n         myPendingList.push(pendingLoans[i]);\r\n      }\r\n    }\r\n   */\r\n\r\n   //u stands for user\r\n   function uGetMyLoans (address _loanie) public returns(Loan [] memory){\r\n\r\n    return loans[_loanie];\r\n   }\r\n   function uGetMyLoansLen (address _loanie) public returns(uint256) {\r\n     \r\n     return loans[_loanie].length;\r\n   }\r\n   function initializeInstallments(uint256 _loanAmount,uint128 _interest,uint128 _installmentsNum,uint256 _id,uint256 _initialDate) public returns(bool)\r\n   {\r\n      uint256 month =  2592000 ;  \r\n      uint256 date = _initialDate +month;\r\n     \r\n      //_loanAmount + _loanAmount * (_interest/100);\r\n      uint256 installmentAmountReminder=_loanAmount % _installmentsNum;\r\n      _loanAmount-=installmentAmountReminder;\r\n      uint256 installmentAmount=_loanAmount/_installmentsNum;\r\n      for(uint256 i=0; i<_installmentsNum; i+=1)\r\n      {\r\n        if(i==_installmentsNum-1)\r\n        {\r\n          installmentAmount+=installmentAmountReminder;\r\n        }\r\n        Installment memory installment =Installment(installmentAmount,date,0,false);\r\n        // 0 means that the paydate is not initialized yet\r\n        installments[_id].push(installment);\r\n        date += month;\r\n      }\r\n\r\n      //installments[_id][_installmentsNum-1].amount+=installmentAmountReminder;\r\n      return true;\r\n   }\r\n\r\n   function getInstallments (uint256 _id) public returns(Installment [] memory ) {\r\n     \r\n     return installments[_id];\r\n   }\r\n   function getInstallmentsLen (uint256 _id) public returns(uint256) {\r\n     \r\n     return installments[_id].length;\r\n   }\r\n  function getMyInstallments (uint256 _id) public returns(bool res)\r\n  {\r\n    address loanie = msg.sender;\r\n    \r\n    uint256 installmentsLen = getInstallmentsLen(_id);\r\n    //uint256 loansLen = loansContract.getInstallments(_id);\r\n    Installment [] memory installments = new Installment[](installmentsLen);\r\n    installments = getInstallments(_id);\r\n    uint256 [] memory installmentAmounts = new uint256 [](installmentsLen);\r\n    uint256 [] memory payDates = new uint256 [](installmentsLen);\r\n    uint256 [] memory payOutDate = new uint256 [](installmentsLen);\r\n    bool [] memory paids = new bool [](installmentsLen);\r\n    for(uint256 i = 0; i < installmentsLen; i += 1)\r\n    {\r\n        installmentAmounts[i] = installments[i].amount;\r\n        payDates[i] = installments[i].payDate;\r\n        payOutDate[i] = installments[i].paidOutDate;\r\n        paids[i] = installments[i].paid;\r\n    }\r\n    emit getLoanInstallments(installmentAmounts, payDates, payOutDate, paids);\r\n    return true;\r\n  }\r\n  function confirmLoanInstallment(address loaner,uint256 _index,uint256 _id) public returns (bool)\r\n  {\r\n    if(installments[_id][_index].paid==true)\r\n    {\r\n      return false;\r\n    }\r\n    installments[_id][_index].paid=true;\r\n    installments[_id][_index].paidOutDate=now;\r\n\r\n    Loan [] memory organizationLoans=loanerLoans[loaner];\r\n    Loan memory currentLoan;\r\n    for(uint256 i=0;i<organizationLoans.length;i+=1)\r\n    {\r\n      if(_id==organizationLoans[i].id)\r\n      {\r\n        currentLoan=organizationLoans[i];\r\n        break;\r\n      }\r\n    }\r\n    address loanie=currentLoan.loanReceiver;\r\n\r\n    uint256 month =  2592000 ;\r\n    uint256 week=604800;\r\n    uint256 points=5;\r\n    uint256 day=86400;\r\n\r\n\r\n    uint256 differanceTime=(installments[_id][_index].paidOutDate+month+(week*3))-installments[_id][_index].payDate;\r\n\r\n\r\n    if(differanceTime<=day) // pay in the same day\r\n    {\r\n      setNewPoints(loanie,points);\r\n    }\r\n    else if(differanceTime<=week)\r\n    {\r\n      points-=1;\r\n      setNewPoints(loanie,points);\r\n    }\r\n    else\r\n    {\r\n      for(uint256 i=1;week<differanceTime;i+=1)\r\n      {\r\n        if(week*i>differanceTime)\r\n        {\r\n          break;\r\n        }\r\n        if(points==0)\r\n        {\r\n          break;\r\n        }\r\n        points-=1;\r\n      } \r\n      setNewPoints(loanie,points);\r\n    }\r\n    return true;\r\n  } \r\n  function setNewPoints (address _loanie,uint256 _points) public returns(bool res)  \r\n  {\r\n    Accounts accountsContract = Accounts(accountsContractAddress);\r\n    accountsContract.changePoints(_loanie,_points);\r\n    return true;\r\n  }\r\n  \r\n}",
  "sourcePath": "C:\\Users\\pc\\Desktop\\BlockchainCreditBureau\\contracts\\Loans.sol",
  "compiler": {
    "name": "solc",
    "version": "0.5.0+commit.1d4f565a.Emscripten.clang"
  },
  "schemaVersion": "3.0.1",
  "updatedAt": "2020-05-25T12:10:18.649Z",
  "devdoc": {
    "methods": {}
  },
  "userdoc": {
    "methods": {
      "uGetMyLoans(address)": {
        "notice": "function getLoans () public returns(Loan [] memory)  {\r return loans;\r }\r"
      }
    }
  }
}