{
  "contractName": "Organization",
  "abi": [
    {
      "inputs": [],
      "payable": false,
      "stateMutability": "nonpayable",
      "type": "constructor",
      "signature": "constructor"
    },
    {
      "anonymous": false,
      "inputs": [
        {
          "indexed": false,
          "name": "_amounts",
          "type": "uint256[]"
        },
        {
          "indexed": false,
          "name": "_addresses",
          "type": "address[]"
        },
        {
          "indexed": false,
          "name": "_ids",
          "type": "uint256[]"
        },
        {
          "indexed": false,
          "name": "_installmentsNum",
          "type": "uint128[]"
        },
        {
          "indexed": false,
          "name": "_interest",
          "type": "uint128[]"
        }
      ],
      "name": "getLoanerLoans",
      "type": "event",
      "signature": "0x9c2a962214053ac576cfb828f8392f9eec48201cdd3ae1da39e673e3e9cf41b7"
    },
    {
      "constant": false,
      "inputs": [
        {
          "name": "_loanie",
          "type": "address"
        },
        {
          "name": "_amount",
          "type": "uint256"
        },
        {
          "name": "_installmentsNum",
          "type": "uint128"
        },
        {
          "name": "_interest",
          "type": "uint128"
        }
      ],
      "name": "createLoan",
      "outputs": [
        {
          "name": "",
          "type": "bool"
        }
      ],
      "payable": false,
      "stateMutability": "nonpayable",
      "type": "function",
      "signature": "0x32f1ba00"
    },
    {
      "constant": false,
      "inputs": [],
      "name": "getLoans",
      "outputs": [
        {
          "name": "",
          "type": "bool"
        }
      ],
      "payable": false,
      "stateMutability": "nonpayable",
      "type": "function",
      "signature": "0xaa4a8711"
    },
    {
      "constant": false,
      "inputs": [
        {
          "name": "_loansContractAddress",
          "type": "address"
        }
      ],
      "name": "setLoansContractAddress",
      "outputs": [],
      "payable": false,
      "stateMutability": "nonpayable",
      "type": "function",
      "signature": "0x9d9a69b5"
    },
    {
      "constant": false,
      "inputs": [
        {
          "name": "_index",
          "type": "uint256"
        },
        {
          "name": "_id",
          "type": "uint256"
        }
      ],
      "name": "confirmInstallment",
      "outputs": [
        {
          "name": "",
          "type": "bool"
        }
      ],
      "payable": false,
      "stateMutability": "nonpayable",
      "type": "function",
      "signature": "0x366c7fef"
    }
  ],
  "bytecode": "0x608060405234801561001057600080fd5b50610ff5806100206000396000f3fe608060405260043610610062576000357c0100000000000000000000000000000000000000000000000000000000900463ffffffff16806332f1ba0014610067578063366c7fef146100a45780639d9a69b5146100e1578063aa4a87111461010a575b600080fd5b34801561007357600080fd5b5061008e60048036036100899190810190610a8c565b610135565b60405161009b9190610e34565b60405180910390f35b3480156100b057600080fd5b506100cb60048036036100c69190810190610b82565b610242565b6040516100d89190610e34565b60405180910390f35b3480156100ed57600080fd5b5061010860048036036101039190810190610a63565b610329565b005b34801561011657600080fd5b5061011f61036c565b60405161012c9190610e34565b60405180910390f35b60008033905080600160006101000a81548173ffffffffffffffffffffffffffffffffffffffff021916908373ffffffffffffffffffffffffffffffffffffffff16021790555060008060009054906101000a900473ffffffffffffffffffffffffffffffffffffffff1690508073ffffffffffffffffffffffffffffffffffffffff166383617c9d88848960008a8a6040518763ffffffff167c010000000000000000000000000000000000000000000000000000000002815260040161020296959493929190610d26565b600060405180830381600087803b15801561021c57600080fd5b505af1158015610230573d6000803e3d6000fd5b50505050600192505050949350505050565b60008033905060008060009054906101000a900473ffffffffffffffffffffffffffffffffffffffff16905060008173ffffffffffffffffffffffffffffffffffffffff16635c47e5b08488886040518463ffffffff167c01000000000000000000000000000000000000000000000000000000000281526004016102c993929190610d87565b602060405180830381600087803b1580156102e357600080fd5b505af11580156102f7573d6000803e3d6000fd5b505050506040513d601f19601f8201168201806040525061031b9190810190610b30565b905080935050505092915050565b806000806101000a81548173ffffffffffffffffffffffffffffffffffffffff021916908373ffffffffffffffffffffffffffffffffffffffff16021790555050565b60008033905060008060009054906101000a900473ffffffffffffffffffffffffffffffffffffffff16905060008173ffffffffffffffffffffffffffffffffffffffff166310dfdebf846040518263ffffffff167c01000000000000000000000000000000000000000000000000000000000281526004016103ef9190610d0b565b602060405180830381600087803b15801561040957600080fd5b505af115801561041d573d6000803e3d6000fd5b505050506040513d601f19601f820116820180604052506104419190810190610b59565b905060608160405190808252806020026020018201604052801561047f57816020015b61046c61082f565b8152602001906001900390816104645790505b5090508273ffffffffffffffffffffffffffffffffffffffff16633fee8801856040518263ffffffff167c01000000000000000000000000000000000000000000000000000000000281526004016104d79190610d0b565b600060405180830381600087803b1580156104f157600080fd5b505af1158015610505573d6000803e3d6000fd5b505050506040513d6000823e3d601f19601f8201168201806040525061052e9190810190610aef565b90506060826040519080825280602002602001820160405280156105615781602001602082028038833980820191505090505b5090506060836040519080825280602002602001820160405280156105955781602001602082028038833980820191505090505b5090506060846040519080825280602002602001820160405280156105c95781602001602082028038833980820191505090505b5090506060856040519080825280602002602001820160405280156105fd5781602001602082028038833980820191505090505b5090506060866040519080825280602002602001820160405280156106315781602001602082028038833980820191505090505b50905060008090505b878110156107df57868181518110151561065057fe5b9060200190602002015160400151868281518110151561066c57fe5b9060200190602002019073ffffffffffffffffffffffffffffffffffffffff16908173ffffffffffffffffffffffffffffffffffffffff168152505086818151811015156106b657fe5b906020019060200201516060015185828151811015156106d257fe5b906020019060200201818152505086818151811015156106ee57fe5b9060200190602002015160000151848281518110151561070a57fe5b9060200190602002018181525050868181518110151561072657fe5b9060200190602002015160800151838281518110151561074257fe5b906020019060200201906fffffffffffffffffffffffffffffffff1690816fffffffffffffffffffffffffffffffff1681525050868181518110151561078457fe5b9060200190602002015160a0015182828151811015156107a057fe5b906020019060200201906fffffffffffffffffffffffffffffffff1690816fffffffffffffffffffffffffffffffff168152505060018101905061063a565b507f9c2a962214053ac576cfb828f8392f9eec48201cdd3ae1da39e673e3e9cf41b78486858585604051610817959493929190610dbe565b60405180910390a16001995050505050505050505090565b60c06040519081016040528060008152602001600073ffffffffffffffffffffffffffffffffffffffff168152602001600073ffffffffffffffffffffffffffffffffffffffff1681526020016000815260200160006fffffffffffffffffffffffffffffffff16815260200160006fffffffffffffffffffffffffffffffff1681525090565b60006108c28235610f77565b905092915050565b60006108d68251610f77565b905092915050565b600082601f83011215156108f157600080fd5b81516109046108ff82610e7c565b610e4f565b915081818352602084019350602081019050838560c084028201111561092957600080fd5b60005b83811015610959578161093f8882610977565b845260208401935060c0830192505060018101905061092c565b5050505092915050565b600061096f8251610f89565b905092915050565b600060c0828403121561098957600080fd5b61099360c0610e4f565b905060006109a384828501610a4f565b60008301525060206109b7848285016108ca565b60208301525060406109cb848285016108ca565b60408301525060606109df84828501610a4f565b60608301525060806109f384828501610a27565b60808301525060a0610a0784828501610a27565b60a08301525092915050565b6000610a1f8235610f95565b905092915050565b6000610a338251610f95565b905092915050565b6000610a478235610fb1565b905092915050565b6000610a5b8251610fb1565b905092915050565b600060208284031215610a7557600080fd5b6000610a83848285016108b6565b91505092915050565b60008060008060808587031215610aa257600080fd5b6000610ab0878288016108b6565b9450506020610ac187828801610a3b565b9350506040610ad287828801610a13565b9250506060610ae387828801610a13565b91505092959194509250565b600060208284031215610b0157600080fd5b600082015167ffffffffffffffff811115610b1b57600080fd5b610b27848285016108de565b91505092915050565b600060208284031215610b4257600080fd5b6000610b5084828501610963565b91505092915050565b600060208284031215610b6b57600080fd5b6000610b7984828501610a4f565b91505092915050565b60008060408385031215610b9557600080fd5b6000610ba385828601610a3b565b9250506020610bb485828601610a3b565b9150509250929050565b610bc781610f13565b82525050565b6000610bd882610ecb565b808452602084019350610bea83610ea4565b60005b82811015610c1c57610c00868351610bbe565b610c0982610eec565b9150602086019550600181019050610bed565b50849250505092915050565b6000610c3382610ed6565b808452602084019350610c4583610eb1565b60005b82811015610c7757610c5b868351610ced565b610c6482610ef9565b9150602086019550600181019050610c48565b50849250505092915050565b6000610c8e82610ee1565b808452602084019350610ca083610ebe565b60005b82811015610cd257610cb6868351610cfc565b610cbf82610f06565b9150602086019550600181019050610ca3565b50849250505092915050565b610ce781610f25565b82525050565b610cf681610f31565b82525050565b610d0581610f6d565b82525050565b6000602082019050610d206000830184610bbe565b92915050565b600060c082019050610d3b6000830189610bbe565b610d486020830188610bbe565b610d556040830187610cfc565b610d626060830186610cde565b610d6f6080830185610ced565b610d7c60a0830184610ced565b979650505050505050565b6000606082019050610d9c6000830186610bbe565b610da96020830185610cfc565b610db66040830184610cfc565b949350505050565b600060a0820190508181036000830152610dd88188610c83565b90508181036020830152610dec8187610bcd565b90508181036040830152610e008186610c83565b90508181036060830152610e148185610c28565b90508181036080830152610e288184610c28565b90509695505050505050565b6000602082019050610e496000830184610cde565b92915050565b6000604051905081810181811067ffffffffffffffff82111715610e7257600080fd5b8060405250919050565b600067ffffffffffffffff821115610e9357600080fd5b602082029050602081019050919050565b6000602082019050919050565b6000602082019050919050565b6000602082019050919050565b600081519050919050565b600081519050919050565b600081519050919050565b6000602082019050919050565b6000602082019050919050565b6000602082019050919050565b6000610f1e82610f4d565b9050919050565b60008115159050919050565b60006fffffffffffffffffffffffffffffffff82169050919050565b600073ffffffffffffffffffffffffffffffffffffffff82169050919050565b6000819050919050565b6000610f8282610f4d565b9050919050565b60008115159050919050565b60006fffffffffffffffffffffffffffffffff82169050919050565b600081905091905056fea265627a7a7230582054da85ddb6561ea8d6f4667bb61672ecb70f7aa3adcfc5d8919d2e89c3d298bd6c6578706572696d656e74616cf50037",
  "source": "pragma experimental ABIEncoderV2;\r\npragma solidity >=0.4.21 <0.7.0;\r\n\r\n/**\r\n * The contractName contract does this and that...\r\n */\r\n\r\n\r\nimport \"./Loans.sol\";\r\n \r\ncontract Organization{\r\n  address loansContractAddress;\r\n  address loanerAddress;\r\n  constructor() public {\r\n \t   \r\n  }\r\n   event getLoanerLoans(uint256 [] _amounts, address [] _addresses, uint256 [] _ids, uint128 [] _installmentsNum , uint128 [] _interest);\r\n  function createLoan (address _loanie, uint256 _amount, uint128 _installmentsNum, uint128 _interest) public returns(bool)  {\r\n    address loaner = msg.sender;\r\n    loanerAddress = loaner;\r\n    Loans loansContract = Loans(loansContractAddress);\r\n    \r\n    //TRIGGER EVENT TO USER\r\n    // WAIT AN EVENT COMING FROM THE USER IF IT COME ADD\r\n    \r\n    loansContract.add(_loanie, loaner, _amount, false, _installmentsNum, _interest);\r\n  \treturn true;\r\n  }\r\n  function getLoans()public returns(bool) \r\n  {\r\n    address loaner = msg.sender;\r\n    Loans loansContract = Loans(loansContractAddress);\r\n    uint256 loansLen = loansContract.getLoanerLoansLen(loaner);\r\n    Loans.Loan [] memory loans = new Loans.Loan[](loansLen);\r\n    loans=loansContract.getLoanerLoans(loaner);\r\n    address [] memory loanersAddresses = new address [](loansLen);\r\n    uint256 [] memory loansAmounts = new uint256 [](loansLen);\r\n    uint256 [] memory loansIds = new uint256 [](loansLen);\r\n    uint128 [] memory loansInstallmentsNums = new uint128 [](loansLen);\r\n    uint128 [] memory loansInterests = new uint128 [](loansLen);\r\n    for(uint256 i = 0; i < loansLen; i += 1)\r\n    {\r\n        loanersAddresses[i] = loans[i].loaner;\r\n        loansAmounts[i] = loans[i].loanAmount;\r\n        loansIds[i] = loans[i].id;\r\n        loansInstallmentsNums [i] = loans[i].installmentsNum;\r\n        loansInterests[i] = loans[i].interest;\r\n    }\r\n    emit getLoanerLoans(loansAmounts, loanersAddresses, loansIds, loansInstallmentsNums, loansInterests);\r\n    return true;\r\n  }\r\n \r\n  //To set the (loans contract) address deployed on the chain\r\n  //It should be set before deploying, but will be updated later\r\n  function setLoansContractAddress(address _loansContractAddress) public {\r\n    loansContractAddress=_loansContractAddress;\r\n  }\r\n  function confirmInstallment(uint256 _index,uint256 _id)public returns(bool)\r\n  {\r\n    address loaner=msg.sender;\r\n    Loans loansContract = Loans(loansContractAddress);\r\n    bool result =loansContract.confirmLoanInstallment(loaner,_index,_id);\r\n    return result;\r\n\r\n  }\r\n}",
  "sourcePath": "C:/Users/pc/Desktop/BlockchainCreditBureau/contracts/Organization.sol",
  "compiler": {
    "name": "solc",
    "version": "0.5.0+commit.1d4f565a.Emscripten.clang"
  },
  "schemaVersion": "3.0.1",
  "updatedAt": "2020-05-25T12:10:18.635Z",
  "devdoc": {
    "methods": {}
  },
  "userdoc": {
    "methods": {}
  }
}