{
  "contractName": "User",
  "abi": [
    {
      "inputs": [],
      "payable": false,
      "stateMutability": "nonpayable",
      "type": "constructor",
      "signature": "constructor"
    },
    {
      "anonymous": false,
      "inputs": [
        {
          "indexed": false,
          "name": "_amounts",
          "type": "uint256[]"
        },
        {
          "indexed": false,
          "name": "_addresses",
          "type": "address[]"
        },
        {
          "indexed": false,
          "name": "_ids",
          "type": "uint256[]"
        },
        {
          "indexed": false,
          "name": "_installmentsNum",
          "type": "uint128[]"
        },
        {
          "indexed": false,
          "name": "_interest",
          "type": "uint128[]"
        }
      ],
      "name": "getAmounts",
      "type": "event",
      "signature": "0x2aa5a848c8033e7fedf10e3d8a25e899f777366e3e1d911bf74298cf5585bf96"
    },
    {
      "anonymous": false,
      "inputs": [
        {
          "components": [
            {
              "name": "id",
              "type": "uint256"
            },
            {
              "name": "loanReceiver",
              "type": "address"
            },
            {
              "name": "loaner",
              "type": "address"
            },
            {
              "name": "loanAmount",
              "type": "uint256"
            },
            {
              "name": "installmentsNum",
              "type": "uint128"
            },
            {
              "name": "interest",
              "type": "uint128"
            }
          ],
          "indexed": false,
          "name": "_loans",
          "type": "tuple[]"
        }
      ],
      "name": "getLoans",
      "type": "event",
      "signature": "0xdb30366b85059d18745ef8dc273500a443ca86c8e8eda9b48d630653e8482a3f"
    },
    {
      "constant": false,
      "inputs": [
        {
          "name": "_loansContractAddress",
          "type": "address"
        }
      ],
      "name": "setLoansContractAddress",
      "outputs": [],
      "payable": false,
      "stateMutability": "nonpayable",
      "type": "function",
      "signature": "0x9d9a69b5"
    },
    {
      "constant": false,
      "inputs": [
        {
          "name": "_type",
          "type": "bool"
        },
        {
          "name": "_loanId",
          "type": "uint256"
        }
      ],
      "name": "validateLoan",
      "outputs": [
        {
          "name": "res",
          "type": "bool"
        }
      ],
      "payable": false,
      "stateMutability": "nonpayable",
      "type": "function",
      "signature": "0x24f6f81d"
    },
    {
      "constant": false,
      "inputs": [],
      "name": "getPendingLoans",
      "outputs": [
        {
          "name": "",
          "type": "bool"
        }
      ],
      "payable": false,
      "stateMutability": "nonpayable",
      "type": "function",
      "signature": "0xee24af5a"
    },
    {
      "constant": false,
      "inputs": [],
      "name": "getMyLoans",
      "outputs": [
        {
          "name": "",
          "type": "bool"
        }
      ],
      "payable": false,
      "stateMutability": "nonpayable",
      "type": "function",
      "signature": "0xc3254d97"
    },
    {
      "constant": false,
      "inputs": [],
      "name": "getPoints",
      "outputs": [
        {
          "name": "",
          "type": "uint256"
        }
      ],
      "payable": false,
      "stateMutability": "nonpayable",
      "type": "function",
      "signature": "0xf4b7095b"
    }
  ],
  "bytecode": "0x608060405234801561001057600080fd5b506113c8806100206000396000f3fe60806040526004361061006d576000357c0100000000000000000000000000000000000000000000000000000000900463ffffffff16806324f6f81d146100725780639d9a69b5146100af578063c3254d97146100d8578063ee24af5a14610103578063f4b7095b1461012e575b600080fd5b34801561007e57600080fd5b5061009960048036036100949190810190610f80565b610159565b6040516100a691906111c3565b60405180910390f35b3480156100bb57600080fd5b506100d660048036036100d19190810190610eed565b6102f1565b005b3480156100e457600080fd5b506100ed610334565b6040516100fa91906111c3565b60405180910390f35b34801561010f57600080fd5b506101186107f7565b60405161012591906111c3565b60405180910390f35b34801561013a57600080fd5b50610143610caf565b60405161015091906111de565b60405180910390f35b60008033905060008060009054906101000a900473ffffffffffffffffffffffffffffffffffffffff169050841561023a578073ffffffffffffffffffffffffffffffffffffffff1663b224f3ec85846040518363ffffffff167c01000000000000000000000000000000000000000000000000000000000281526004016101e29291906111f9565b602060405180830381600087803b1580156101fc57600080fd5b505af1158015610210573d6000803e3d6000fd5b505050506040513d601f19601f820116820180604052506102349190810190610f57565b506102e5565b8073ffffffffffffffffffffffffffffffffffffffff1663990d6e1f85846040518363ffffffff167c01000000000000000000000000000000000000000000000000000000000281526004016102919291906111f9565b602060405180830381600087803b1580156102ab57600080fd5b505af11580156102bf573d6000803e3d6000fd5b505050506040513d601f19601f820116820180604052506102e39190810190610f57565b505b60019250505092915050565b806000806101000a81548173ffffffffffffffffffffffffffffffffffffffff021916908373ffffffffffffffffffffffffffffffffffffffff16021790555050565b60008033905060008060009054906101000a900473ffffffffffffffffffffffffffffffffffffffff16905060008173ffffffffffffffffffffffffffffffffffffffff166363955849846040518263ffffffff167c01000000000000000000000000000000000000000000000000000000000281526004016103b79190611132565b602060405180830381600087803b1580156103d157600080fd5b505af11580156103e5573d6000803e3d6000fd5b505050506040513d601f19601f820116820180604052506104099190810190610fbc565b905060608160405190808252806020026020018201604052801561044757816020015b610434610cb9565b81526020019060019003908161042c5790505b5090508273ffffffffffffffffffffffffffffffffffffffff1663eb9c3f1c856040518263ffffffff167c010000000000000000000000000000000000000000000000000000000002815260040161049f9190611132565b600060405180830381600087803b1580156104b957600080fd5b505af11580156104cd573d6000803e3d6000fd5b505050506040513d6000823e3d601f19601f820116820180604052506104f69190810190610f16565b90506060826040519080825280602002602001820160405280156105295781602001602082028038833980820191505090505b50905060608360405190808252806020026020018201604052801561055d5781602001602082028038833980820191505090505b5090506060846040519080825280602002602001820160405280156105915781602001602082028038833980820191505090505b5090506060856040519080825280602002602001820160405280156105c55781602001602082028038833980820191505090505b5090506060866040519080825280602002602001820160405280156105f95781602001602082028038833980820191505090505b50905060008090505b878110156107a757868181518110151561061857fe5b9060200190602002015160400151868281518110151561063457fe5b9060200190602002019073ffffffffffffffffffffffffffffffffffffffff16908173ffffffffffffffffffffffffffffffffffffffff1681525050868181518110151561067e57fe5b9060200190602002015160600151858281518110151561069a57fe5b906020019060200201818152505086818151811015156106b657fe5b906020019060200201516000015184828151811015156106d257fe5b906020019060200201818152505086818151811015156106ee57fe5b9060200190602002015160800151838281518110151561070a57fe5b906020019060200201906fffffffffffffffffffffffffffffffff1690816fffffffffffffffffffffffffffffffff1681525050868181518110151561074c57fe5b9060200190602002015160a00151828281518110151561076857fe5b906020019060200201906fffffffffffffffffffffffffffffffff1690816fffffffffffffffffffffffffffffffff1681525050600181019050610602565b507f2aa5a848c8033e7fedf10e3d8a25e899f777366e3e1d911bf74298cf5585bf9684868585856040516107df95949392919061114d565b60405180910390a16001995050505050505050505090565b60008033905060008060009054906101000a900473ffffffffffffffffffffffffffffffffffffffff16905060008173ffffffffffffffffffffffffffffffffffffffff1663e70f37326040518163ffffffff167c0100000000000000000000000000000000000000000000000000000000028152600401602060405180830381600087803b15801561088957600080fd5b505af115801561089d573d6000803e3d6000fd5b505050506040513d601f19601f820116820180604052506108c19190810190610fbc565b90506060816040519080825280602002602001820160405280156108f45781602001602082028038833980820191505090505b5090506060826040519080825280602002602001820160405280156109285781602001602082028038833980820191505090505b50905060608360405190808252806020026020018201604052801561095c5781602001602082028038833980820191505090505b5090506060846040519080825280602002602001820160405280156109905781602001602082028038833980820191505090505b5090506060856040519080825280602002602001820160405280156109c45781602001602082028038833980820191505090505b509050606086604051908082528060200260200182016040528015610a0357816020015b6109f0610cb9565b8152602001906001900390816109e85790505b5090508773ffffffffffffffffffffffffffffffffffffffff16638379c5208a6040518263ffffffff167c0100000000000000000000000000000000000000000000000000000000028152600401610a5b9190611132565b600060405180830381600087803b158015610a7557600080fd5b505af1158015610a89573d6000803e3d6000fd5b505050506040513d6000823e3d601f19601f82011682018060405250610ab29190810190610f16565b905060008090505b87811015610c5f578181815181101515610ad057fe5b90602001906020020151604001518782815181101515610aec57fe5b9060200190602002019073ffffffffffffffffffffffffffffffffffffffff16908173ffffffffffffffffffffffffffffffffffffffff16815250508181815181101515610b3657fe5b90602001906020020151606001518682815181101515610b5257fe5b90602001906020020181815250508181815181101515610b6e57fe5b90602001906020020151600001518582815181101515610b8a57fe5b90602001906020020181815250508181815181101515610ba657fe5b90602001906020020151608001518482815181101515610bc257fe5b906020019060200201906fffffffffffffffffffffffffffffffff1690816fffffffffffffffffffffffffffffffff16815250508181815181101515610c0457fe5b9060200190602002015160a001518382815181101515610c2057fe5b906020019060200201906fffffffffffffffffffffffffffffffff1690816fffffffffffffffffffffffffffffffff1681525050600181019050610aba565b507f2aa5a848c8033e7fedf10e3d8a25e899f777366e3e1d911bf74298cf5585bf968587868686604051610c9795949392919061114d565b60405180910390a16001995050505050505050505090565b6000803390505090565b60c06040519081016040528060008152602001600073ffffffffffffffffffffffffffffffffffffffff168152602001600073ffffffffffffffffffffffffffffffffffffffff1681526020016000815260200160006fffffffffffffffffffffffffffffffff16815260200160006fffffffffffffffffffffffffffffffff1681525090565b6000610d4c823561134a565b905092915050565b6000610d60825161134a565b905092915050565b600082601f8301121515610d7b57600080fd5b8151610d8e610d898261124f565b611222565b915081818352602084019350602081019050838560c0840282011115610db357600080fd5b60005b83811015610de35781610dc98882610e15565b845260208401935060c08301925050600181019050610db6565b5050505092915050565b6000610df9823561135c565b905092915050565b6000610e0d825161135c565b905092915050565b600060c08284031215610e2757600080fd5b610e3160c0611222565b90506000610e4184828501610ed9565b6000830152506020610e5584828501610d54565b6020830152506040610e6984828501610d54565b6040830152506060610e7d84828501610ed9565b6060830152506080610e9184828501610eb1565b60808301525060a0610ea584828501610eb1565b60a08301525092915050565b6000610ebd8251611368565b905092915050565b6000610ed18235611384565b905092915050565b6000610ee58251611384565b905092915050565b600060208284031215610eff57600080fd5b6000610f0d84828501610d40565b91505092915050565b600060208284031215610f2857600080fd5b600082015167ffffffffffffffff811115610f4257600080fd5b610f4e84828501610d68565b91505092915050565b600060208284031215610f6957600080fd5b6000610f7784828501610e01565b91505092915050565b60008060408385031215610f9357600080fd5b6000610fa185828601610ded565b9250506020610fb285828601610ec5565b9150509250929050565b600060208284031215610fce57600080fd5b6000610fdc84828501610ed9565b91505092915050565b610fee816112e6565b82525050565b6000610fff8261129e565b80845260208401935061101183611277565b60005b8281101561104357611027868351610fe5565b611030826112bf565b9150602086019550600181019050611014565b50849250505092915050565b600061105a826112a9565b80845260208401935061106c83611284565b60005b8281101561109e57611082868351611114565b61108b826112cc565b915060208601955060018101905061106f565b50849250505092915050565b60006110b5826112b4565b8084526020840193506110c783611291565b60005b828110156110f9576110dd868351611123565b6110e6826112d9565b91506020860195506001810190506110ca565b50849250505092915050565b61110e816112f8565b82525050565b61111d81611304565b82525050565b61112c81611340565b82525050565b60006020820190506111476000830184610fe5565b92915050565b600060a082019050818103600083015261116781886110aa565b9050818103602083015261117b8187610ff4565b9050818103604083015261118f81866110aa565b905081810360608301526111a3818561104f565b905081810360808301526111b7818461104f565b90509695505050505050565b60006020820190506111d86000830184611105565b92915050565b60006020820190506111f36000830184611123565b92915050565b600060408201905061120e6000830185611123565b61121b6020830184610fe5565b9392505050565b6000604051905081810181811067ffffffffffffffff8211171561124557600080fd5b8060405250919050565b600067ffffffffffffffff82111561126657600080fd5b602082029050602081019050919050565b6000602082019050919050565b6000602082019050919050565b6000602082019050919050565b600081519050919050565b600081519050919050565b600081519050919050565b6000602082019050919050565b6000602082019050919050565b6000602082019050919050565b60006112f182611320565b9050919050565b60008115159050919050565b60006fffffffffffffffffffffffffffffffff82169050919050565b600073ffffffffffffffffffffffffffffffffffffffff82169050919050565b6000819050919050565b600061135582611320565b9050919050565b60008115159050919050565b60006fffffffffffffffffffffffffffffffff82169050919050565b600081905091905056fea265627a7a72305820f2a9d68aef865baad11d879785ef863dccec70416cdaea27e48fa07171a41a536c6578706572696d656e74616cf50037",
  "source": "//pragma solidity >=0.4.21 <0.7.0;\r\npragma experimental ABIEncoderV2;\r\nimport \"./Loans.sol\";\r\ncontract User {\r\n    address loansContractAddress;\r\n    event getAmounts(uint256 [] _amounts, address [] _addresses, uint256 [] _ids, uint128 [] _installmentsNum , uint128 [] _interest);\r\n    event getLoans(Loans.Loan[] _loans);\r\n   \r\n\r\n\r\n    \r\n    constructor() public\r\n    {\r\n\r\n    }\r\n    //To set the (loans contract) address deployed on the chain\r\n    function setLoansContractAddress(address _loansContractAddress) public {\r\n        loansContractAddress=_loansContractAddress;\r\n    }\r\n\r\n\r\n\r\n    function validateLoan (bool _type, uint256 _loanId) public returns(bool res)  \r\n    { \r\n        address loanie = msg.sender;\r\n        Loans loansContract = Loans(loansContractAddress);\r\n        if (_type)\r\n          loansContract.confirmLoan(_loanId, loanie);\r\n        else\r\n          loansContract.rejectLoan(_loanId, loanie);\r\n        return true;\r\n    }\r\n\r\n\r\n\r\n    function getPendingLoans() public returns(bool)\r\n    {\r\n        //Will get the peding loans of the user that calls the function\r\n        address loanie = msg.sender;\r\n\r\n\r\n        Loans loansContract = Loans(loansContractAddress);\r\n        uint256 len = loansContract.getPendingLoansLength();\r\n        address [] memory loanersAddresses = new address [](len);\r\n        uint256 [] memory loansAmounts = new uint256 [](len);\r\n        uint256 [] memory loansIds = new uint256 [](len);\r\n        uint128 [] memory loansInstallmentsNums = new uint128 [](len);\r\n        uint128 [] memory loansInterests = new uint128 [](len);\r\n\r\n        Loans.Loan [] memory pendingLoans = new Loans.Loan[](len);\r\n        pendingLoans = loansContract.getPendingLoansList(loanie); \r\n        for(uint256 i = 0; i < len; i += 1)\r\n        {\r\n          loanersAddresses[i] = pendingLoans[i].loaner;\r\n          loansAmounts[i] = pendingLoans[i].loanAmount;\r\n          loansIds[i] = pendingLoans[i].id;\r\n          loansInstallmentsNums [i] = pendingLoans[i].installmentsNum;\r\n          loansInterests[i] = pendingLoans[i].interest;\r\n        }\r\n        emit getAmounts(loansAmounts, loanersAddresses, loansIds, loansInstallmentsNums, loansInterests);\r\n        //emit getLoans(pendingLoans);\r\n        return true;\r\n    }\r\n    function getMyLoans() public returns(bool) {\r\n        address loanie = msg.sender;\r\n        Loans loansContract = Loans(loansContractAddress);\r\n        uint256 loansLen = loansContract.uGetMyLoansLen(loanie);\r\n        Loans.Loan [] memory loans = new Loans.Loan[](loansLen);\r\n        loans = loansContract.uGetMyLoans(loanie);\r\n        address [] memory loanersAddresses = new address [](loansLen);\r\n        uint256 [] memory loansAmounts = new uint256 [](loansLen);\r\n        uint256 [] memory loansIds = new uint256 [](loansLen);\r\n        uint128 [] memory loansInstallmentsNums = new uint128 [](loansLen);\r\n        uint128 [] memory loansInterests = new uint128 [](loansLen);\r\n        for(uint256 i = 0; i < loansLen; i += 1)\r\n        {\r\n          loanersAddresses[i] = loans[i].loaner;\r\n          loansAmounts[i] = loans[i].loanAmount;\r\n          loansIds[i] = loans[i].id;\r\n          loansInstallmentsNums [i] = loans[i].installmentsNum;\r\n          loansInterests[i] = loans[i].interest;\r\n        }\r\n        emit getAmounts(loansAmounts, loanersAddresses, loansIds, loansInstallmentsNums, loansInterests);\r\n        return true;\r\n    }\r\n\r\n    function getPoints () public returns(uint256)\r\n    {\r\n        address loanie = msg.sender;\r\n        \r\n    }\r\n    \r\n   \r\n    \r\n}",
  "sourcePath": "C:/Users/pc/Desktop/BlockchainCreditBureau/contracts/User.sol",
  "compiler": {
    "name": "solc",
    "version": "0.5.0+commit.1d4f565a.Emscripten.clang"
  },
  "schemaVersion": "3.0.1",
  "updatedAt": "2020-05-25T12:10:18.621Z",
  "devdoc": {
    "methods": {}
  },
  "userdoc": {
    "methods": {}
  }
}